{
  "contractName": "BublrNftToken",
  "abi": [
    {
      "inputs": [],
      "stateMutability": "nonpayable",
      "type": "constructor"
    },
    {
      "anonymous": false,
      "inputs": [
        {
          "indexed": true,
          "internalType": "address",
          "name": "owner",
          "type": "address"
        },
        {
          "indexed": true,
          "internalType": "address",
          "name": "approved",
          "type": "address"
        },
        {
          "indexed": true,
          "internalType": "uint256",
          "name": "tokenId",
          "type": "uint256"
        }
      ],
      "name": "Approval",
      "type": "event"
    },
    {
      "anonymous": false,
      "inputs": [
        {
          "indexed": true,
          "internalType": "address",
          "name": "owner",
          "type": "address"
        },
        {
          "indexed": true,
          "internalType": "address",
          "name": "operator",
          "type": "address"
        },
        {
          "indexed": false,
          "internalType": "bool",
          "name": "approved",
          "type": "bool"
        }
      ],
      "name": "ApprovalForAll",
      "type": "event"
    },
    {
      "anonymous": false,
      "inputs": [
        {
          "indexed": true,
          "internalType": "address",
          "name": "from",
          "type": "address"
        },
        {
          "indexed": true,
          "internalType": "address",
          "name": "to",
          "type": "address"
        },
        {
          "indexed": true,
          "internalType": "uint256",
          "name": "tokenId",
          "type": "uint256"
        }
      ],
      "name": "Transfer",
      "type": "event"
    },
    {
      "inputs": [
        {
          "internalType": "address",
          "name": "to",
          "type": "address"
        },
        {
          "internalType": "uint256",
          "name": "tokenId",
          "type": "uint256"
        }
      ],
      "name": "approve",
      "outputs": [],
      "stateMutability": "nonpayable",
      "type": "function"
    },
    {
      "inputs": [
        {
          "internalType": "address",
          "name": "owner",
          "type": "address"
        }
      ],
      "name": "balanceOf",
      "outputs": [
        {
          "internalType": "uint256",
          "name": "",
          "type": "uint256"
        }
      ],
      "stateMutability": "view",
      "type": "function",
      "constant": true
    },
    {
      "inputs": [
        {
          "internalType": "uint256",
          "name": "tokenId",
          "type": "uint256"
        }
      ],
      "name": "getApproved",
      "outputs": [
        {
          "internalType": "address",
          "name": "",
          "type": "address"
        }
      ],
      "stateMutability": "view",
      "type": "function",
      "constant": true
    },
    {
      "inputs": [
        {
          "internalType": "address",
          "name": "owner",
          "type": "address"
        },
        {
          "internalType": "address",
          "name": "operator",
          "type": "address"
        }
      ],
      "name": "isApprovedForAll",
      "outputs": [
        {
          "internalType": "bool",
          "name": "",
          "type": "bool"
        }
      ],
      "stateMutability": "view",
      "type": "function",
      "constant": true
    },
    {
      "inputs": [],
      "name": "name",
      "outputs": [
        {
          "internalType": "string",
          "name": "",
          "type": "string"
        }
      ],
      "stateMutability": "view",
      "type": "function",
      "constant": true
    },
    {
      "inputs": [
        {
          "internalType": "uint256",
          "name": "",
          "type": "uint256"
        }
      ],
      "name": "nftTokenPrices",
      "outputs": [
        {
          "internalType": "uint256",
          "name": "",
          "type": "uint256"
        }
      ],
      "stateMutability": "view",
      "type": "function",
      "constant": true
    },
    {
      "inputs": [
        {
          "internalType": "uint256",
          "name": "",
          "type": "uint256"
        }
      ],
      "name": "onSaleNftTokenArray",
      "outputs": [
        {
          "internalType": "uint256",
          "name": "",
          "type": "uint256"
        }
      ],
      "stateMutability": "view",
      "type": "function",
      "constant": true
    },
    {
      "inputs": [
        {
          "internalType": "uint256",
          "name": "tokenId",
          "type": "uint256"
        }
      ],
      "name": "ownerOf",
      "outputs": [
        {
          "internalType": "address",
          "name": "",
          "type": "address"
        }
      ],
      "stateMutability": "view",
      "type": "function",
      "constant": true
    },
    {
      "inputs": [
        {
          "internalType": "address",
          "name": "from",
          "type": "address"
        },
        {
          "internalType": "address",
          "name": "to",
          "type": "address"
        },
        {
          "internalType": "uint256",
          "name": "tokenId",
          "type": "uint256"
        }
      ],
      "name": "safeTransferFrom",
      "outputs": [],
      "stateMutability": "nonpayable",
      "type": "function"
    },
    {
      "inputs": [
        {
          "internalType": "address",
          "name": "from",
          "type": "address"
        },
        {
          "internalType": "address",
          "name": "to",
          "type": "address"
        },
        {
          "internalType": "uint256",
          "name": "tokenId",
          "type": "uint256"
        },
        {
          "internalType": "bytes",
          "name": "data",
          "type": "bytes"
        }
      ],
      "name": "safeTransferFrom",
      "outputs": [],
      "stateMutability": "nonpayable",
      "type": "function"
    },
    {
      "inputs": [
        {
          "internalType": "address",
          "name": "operator",
          "type": "address"
        },
        {
          "internalType": "bool",
          "name": "approved",
          "type": "bool"
        }
      ],
      "name": "setApprovalForAll",
      "outputs": [],
      "stateMutability": "nonpayable",
      "type": "function"
    },
    {
      "inputs": [
        {
          "internalType": "bytes4",
          "name": "interfaceId",
          "type": "bytes4"
        }
      ],
      "name": "supportsInterface",
      "outputs": [
        {
          "internalType": "bool",
          "name": "",
          "type": "bool"
        }
      ],
      "stateMutability": "view",
      "type": "function",
      "constant": true
    },
    {
      "inputs": [],
      "name": "symbol",
      "outputs": [
        {
          "internalType": "string",
          "name": "",
          "type": "string"
        }
      ],
      "stateMutability": "view",
      "type": "function",
      "constant": true
    },
    {
      "inputs": [
        {
          "internalType": "uint256",
          "name": "index",
          "type": "uint256"
        }
      ],
      "name": "tokenByIndex",
      "outputs": [
        {
          "internalType": "uint256",
          "name": "",
          "type": "uint256"
        }
      ],
      "stateMutability": "view",
      "type": "function",
      "constant": true
    },
    {
      "inputs": [
        {
          "internalType": "address",
          "name": "owner",
          "type": "address"
        },
        {
          "internalType": "uint256",
          "name": "index",
          "type": "uint256"
        }
      ],
      "name": "tokenOfOwnerByIndex",
      "outputs": [
        {
          "internalType": "uint256",
          "name": "",
          "type": "uint256"
        }
      ],
      "stateMutability": "view",
      "type": "function",
      "constant": true
    },
    {
      "inputs": [
        {
          "internalType": "uint256",
          "name": "",
          "type": "uint256"
        }
      ],
      "name": "tokenURIs",
      "outputs": [
        {
          "internalType": "string",
          "name": "",
          "type": "string"
        }
      ],
      "stateMutability": "view",
      "type": "function",
      "constant": true
    },
    {
      "inputs": [],
      "name": "totalSupply",
      "outputs": [
        {
          "internalType": "uint256",
          "name": "",
          "type": "uint256"
        }
      ],
      "stateMutability": "view",
      "type": "function",
      "constant": true
    },
    {
      "inputs": [
        {
          "internalType": "address",
          "name": "from",
          "type": "address"
        },
        {
          "internalType": "address",
          "name": "to",
          "type": "address"
        },
        {
          "internalType": "uint256",
          "name": "tokenId",
          "type": "uint256"
        }
      ],
      "name": "transferFrom",
      "outputs": [],
      "stateMutability": "nonpayable",
      "type": "function"
    },
    {
      "inputs": [
        {
          "internalType": "uint256",
          "name": "_tokenId",
          "type": "uint256"
        }
      ],
      "name": "tokenURI",
      "outputs": [
        {
          "internalType": "string",
          "name": "",
          "type": "string"
        }
      ],
      "stateMutability": "view",
      "type": "function",
      "constant": true
    },
    {
      "inputs": [
        {
          "internalType": "string",
          "name": "_tokenURI",
          "type": "string"
        }
      ],
      "name": "mintNFT",
      "outputs": [
        {
          "internalType": "uint256",
          "name": "",
          "type": "uint256"
        }
      ],
      "stateMutability": "nonpayable",
      "type": "function"
    },
    {
      "inputs": [
        {
          "internalType": "address",
          "name": "_nftTokenOwner",
          "type": "address"
        }
      ],
      "name": "getNftTokens",
      "outputs": [
        {
          "components": [
            {
              "internalType": "uint256",
              "name": "nftTokenId",
              "type": "uint256"
            },
            {
              "internalType": "string",
              "name": "nftTokenURI",
              "type": "string"
            },
            {
              "internalType": "uint256",
              "name": "price",
              "type": "uint256"
            }
          ],
          "internalType": "struct BublrNftToken.NftTokenData[]",
          "name": "",
          "type": "tuple[]"
        }
      ],
      "stateMutability": "view",
      "type": "function",
      "constant": true
    },
    {
      "inputs": [
        {
          "internalType": "uint256",
          "name": "_tokenId",
          "type": "uint256"
        },
        {
          "internalType": "uint256",
          "name": "_price",
          "type": "uint256"
        }
      ],
      "name": "setSaleNftToken",
      "outputs": [],
      "stateMutability": "nonpayable",
      "type": "function"
    },
    {
      "inputs": [],
      "name": "getSaleNftTokens",
      "outputs": [
        {
          "components": [
            {
              "internalType": "uint256",
              "name": "nftTokenId",
              "type": "uint256"
            },
            {
              "internalType": "string",
              "name": "nftTokenURI",
              "type": "string"
            },
            {
              "internalType": "uint256",
              "name": "price",
              "type": "uint256"
            }
          ],
          "internalType": "struct BublrNftToken.NftTokenData[]",
          "name": "",
          "type": "tuple[]"
        }
      ],
      "stateMutability": "view",
      "type": "function",
      "constant": true
    },
    {
      "inputs": [],
      "name": "getSaleNftToken",
      "outputs": [
        {
          "internalType": "uint256[]",
          "name": "",
          "type": "uint256[]"
        }
      ],
      "stateMutability": "view",
      "type": "function",
      "constant": true
    },
    {
      "inputs": [
        {
          "internalType": "uint256",
          "name": "_tokenId",
          "type": "uint256"
        }
      ],
      "name": "getNftTokenPrice",
      "outputs": [
        {
          "internalType": "uint256",
          "name": "",
          "type": "uint256"
        }
      ],
      "stateMutability": "view",
      "type": "function",
      "constant": true
    },
    {
      "inputs": [
        {
          "internalType": "uint256",
          "name": "_tokenId",
          "type": "uint256"
        }
      ],
      "name": "buyNftToken",
      "outputs": [],
      "stateMutability": "payable",
      "type": "function",
      "payable": true
    },
    {
      "inputs": [
        {
          "internalType": "uint256",
          "name": "_tokenId",
          "type": "uint256"
        }
      ],
      "name": "burn",
      "outputs": [],
      "stateMutability": "nonpayable",
      "type": "function"
    }
  ],
  "bytecode": "0x60806040523480156200001157600080fd5b506040518060400160405280600581526020017f6275626c720000000000000000000000000000000000000000000000000000008152506040518060400160405280600a81526020017f6275626c725f6974656d00000000000000000000000000000000000000000000815250816000908051906020019062000096929190620000b8565b508060019080519060200190620000af929190620000b8565b505050620001cc565b828054620000c69062000197565b90600052602060002090601f016020900481019282620000ea576000855562000136565b82601f106200010557805160ff191683800117855562000136565b8280016001018555821562000136579182015b828111156200013557825182559160200191906001019062000118565b5b50905062000145919062000149565b5090565b5b80821115620001645760008160009055506001016200014a565b5090565b7f4e487b7100000000000000000000000000000000000000000000000000000000600052602260045260246000fd5b60006002820490506001821680620001b057607f821691505b602082108103620001c657620001c562000168565b5b50919050565b613fd580620001dc6000396000f3fe60806040526004361061019c5760003560e01c80636c8b703f116100ec578063b88d4fde1161008a578063da8cc6e811610064578063da8cc6e814610636578063e985e9c514610652578063f257f5481461068f578063fb37e883146106cc5761019c565b8063b88d4fde146105a7578063b8e297f4146105d0578063c87b56dd146105f95761019c565b806374a6b54f116100c657806374a6b54f146104eb578063912c45cf1461051657806395d89b4114610553578063a22cb4651461057e5761019c565b80636c8b703f1461043457806370a082311461047157806373e778c5146104ae5761019c565b806323b872dd1161015957806342966c681161013357806342966c68146103545780634ae23e641461037d5780634f6ccce7146103ba5780636352211e146103f75761019c565b806323b872dd146102c55780632f745c59146102ee57806342842e0e1461032b5761019c565b806301ffc9a7146101a157806306fdde03146101de578063081812fc14610209578063095ea7b31461024657806318160ddd1461026f5780631efceb901461029a575b600080fd5b3480156101ad57600080fd5b506101c860048036038101906101c39190612943565b610709565b6040516101d5919061298b565b60405180910390f35b3480156101ea57600080fd5b506101f3610783565b6040516102009190612a3f565b60405180910390f35b34801561021557600080fd5b50610230600480360381019061022b9190612a97565b610815565b60405161023d9190612b05565b60405180910390f35b34801561025257600080fd5b5061026d60048036038101906102689190612b4c565b61085b565b005b34801561027b57600080fd5b50610284610972565b6040516102919190612b9b565b60405180910390f35b3480156102a657600080fd5b506102af61097f565b6040516102bc9190612c74565b60405180910390f35b3480156102d157600080fd5b506102ec60048036038101906102e79190612c96565b6109d7565b005b3480156102fa57600080fd5b5061031560048036038101906103109190612b4c565b610a37565b6040516103229190612b9b565b60405180910390f35b34801561033757600080fd5b50610352600480360381019061034d9190612c96565b610adc565b005b34801561036057600080fd5b5061037b60048036038101906103769190612a97565b610afc565b005b34801561038957600080fd5b506103a4600480360381019061039f9190612a97565b610b8d565b6040516103b19190612b9b565b60405180910390f35b3480156103c657600080fd5b506103e160048036038101906103dc9190612a97565b610ba5565b6040516103ee9190612b9b565b60405180910390f35b34801561040357600080fd5b5061041e60048036038101906104199190612a97565b610c16565b60405161042b9190612b05565b60405180910390f35b34801561044057600080fd5b5061045b60048036038101906104569190612a97565b610cc7565b6040516104689190612a3f565b60405180910390f35b34801561047d57600080fd5b5061049860048036038101906104939190612ce9565b610d67565b6040516104a59190612b9b565b60405180910390f35b3480156104ba57600080fd5b506104d560048036038101906104d09190612a97565b610e1e565b6040516104e29190612b9b565b60405180910390f35b3480156104f757600080fd5b50610500610e42565b60405161050d9190612e72565b60405180910390f35b34801561052257600080fd5b5061053d60048036038101906105389190612a97565b610f40565b60405161054a9190612b9b565b60405180910390f35b34801561055f57600080fd5b50610568610f5d565b6040516105759190612a3f565b60405180910390f35b34801561058a57600080fd5b506105a560048036038101906105a09190612ec0565b610fef565b005b3480156105b357600080fd5b506105ce60048036038101906105c99190613035565b611005565b005b3480156105dc57600080fd5b506105f760048036038101906105f291906130b8565b611067565b005b34801561060557600080fd5b50610620600480360381019061061b9190612a97565b61120a565b60405161062d9190612a3f565b60405180910390f35b610650600480360381019061064b9190612a97565b6112af565b005b34801561065e57600080fd5b50610679600480360381019061067491906130f8565b6114d5565b604051610686919061298b565b60405180910390f35b34801561069b57600080fd5b506106b660048036038101906106b19190612ce9565b611569565b6040516106c39190612e72565b60405180910390f35b3480156106d857600080fd5b506106f360048036038101906106ee91906131d9565b61165d565b6040516107009190612b9b565b60405180910390f35b60007f780e9d63000000000000000000000000000000000000000000000000000000007bffffffffffffffffffffffffffffffffffffffffffffffffffffffff1916827bffffffffffffffffffffffffffffffffffffffffffffffffffffffff1916148061077c575061077b826116b2565b5b9050919050565b60606000805461079290613251565b80601f01602080910402602001604051908101604052809291908181526020018280546107be90613251565b801561080b5780601f106107e05761010080835404028352916020019161080b565b820191906000526020600020905b8154815290600101906020018083116107ee57829003601f168201915b5050505050905090565b600061082082611794565b6004600083815260200190815260200160002060009054906101000a900473ffffffffffffffffffffffffffffffffffffffff169050919050565b600061086682610c16565b90508073ffffffffffffffffffffffffffffffffffffffff168373ffffffffffffffffffffffffffffffffffffffff16036108d6576040517f08c379a00000000000000000000000000000000000000000000000000000000081526004016108cd906132f4565b60405180910390fd5b8073ffffffffffffffffffffffffffffffffffffffff166108f56117df565b73ffffffffffffffffffffffffffffffffffffffff16148061092457506109238161091e6117df565b6114d5565b5b610963576040517f08c379a000000000000000000000000000000000000000000000000000000000815260040161095a90613386565b60405180910390fd5b61096d83836117e7565b505050565b6000600880549050905090565b6060600d8054806020026020016040519081016040528092919081815260200182805480156109cd57602002820191906000526020600020905b8154815260200190600101908083116109b9575b5050505050905090565b6109e86109e26117df565b826118a0565b610a27576040517f08c379a0000000000000000000000000000000000000000000000000000000008152600401610a1e90613418565b60405180910390fd5b610a32838383611935565b505050565b6000610a4283610d67565b8210610a83576040517f08c379a0000000000000000000000000000000000000000000000000000000008152600401610a7a906134aa565b60405180910390fd5b600660008473ffffffffffffffffffffffffffffffffffffffff1673ffffffffffffffffffffffffffffffffffffffff168152602001908152602001600020600083815260200190815260200160002054905092915050565b610af783838360405180602001604052806000815250611005565b505050565b6000610b0782610c16565b90503373ffffffffffffffffffffffffffffffffffffffff168173ffffffffffffffffffffffffffffffffffffffff1614610b77576040517f08c379a0000000000000000000000000000000000000000000000000000000008152600401610b6e9061353c565b60405180910390fd5b610b8082611b9b565b610b8982611cb8565b5050565b600c6020528060005260406000206000915090505481565b6000610baf610972565b8210610bf0576040517f08c379a0000000000000000000000000000000000000000000000000000000008152600401610be7906135ce565b60405180910390fd5b60088281548110610c0457610c036135ee565b5b90600052602060002001549050919050565b6000806002600084815260200190815260200160002060009054906101000a900473ffffffffffffffffffffffffffffffffffffffff169050600073ffffffffffffffffffffffffffffffffffffffff168173ffffffffffffffffffffffffffffffffffffffff1603610cbe576040517f08c379a0000000000000000000000000000000000000000000000000000000008152600401610cb590613669565b60405180910390fd5b80915050919050565b600b6020528060005260406000206000915090508054610ce690613251565b80601f0160208091040260200160405190810160405280929190818152602001828054610d1290613251565b8015610d5f5780601f10610d3457610100808354040283529160200191610d5f565b820191906000526020600020905b815481529060010190602001808311610d4257829003601f168201915b505050505081565b60008073ffffffffffffffffffffffffffffffffffffffff168273ffffffffffffffffffffffffffffffffffffffff1603610dd7576040517f08c379a0000000000000000000000000000000000000000000000000000000008152600401610dce906136fb565b60405180910390fd5b600360008373ffffffffffffffffffffffffffffffffffffffff1673ffffffffffffffffffffffffffffffffffffffff168152602001908152602001600020549050919050565b600d8181548110610e2e57600080fd5b906000526020600020016000915090505481565b60606000610e4e61097f565b90506000815167ffffffffffffffff811115610e6d57610e6c612f0a565b5b604051908082528060200260200182016040528015610ea657816020015b610e93612813565b815260200190600190039081610e8b5790505b50905060005b8251811015610f37576000838281518110610eca57610ec96135ee565b5b602002602001015190506000610edf82610f40565b90506040518060600160405280838152602001610efb8461120a565b815260200182815250848481518110610f1757610f166135ee565b5b602002602001018190525050508080610f2f9061374a565b915050610eac565b50809250505090565b6000600c6000838152602001908152602001600020549050919050565b606060018054610f6c90613251565b80601f0160208091040260200160405190810160405280929190818152602001828054610f9890613251565b8015610fe55780601f10610fba57610100808354040283529160200191610fe5565b820191906000526020600020905b815481529060010190602001808311610fc857829003601f168201915b5050505050905090565b611001610ffa6117df565b8383611dac565b5050565b6110166110106117df565b836118a0565b611055576040517f08c379a000000000000000000000000000000000000000000000000000000000815260040161104c90613418565b60405180910390fd5b61106184848484611f18565b50505050565b600061107283610c16565b90503373ffffffffffffffffffffffffffffffffffffffff168173ffffffffffffffffffffffffffffffffffffffff16146110e2576040517f08c379a00000000000000000000000000000000000000000000000000000000081526004016110d9906137de565b60405180910390fd5b60008211611125576040517f08c379a000000000000000000000000000000000000000000000000000000000815260040161111c9061384a565b60405180910390fd5b6000600c6000858152602001908152602001600020541461117b576040517f08c379a0000000000000000000000000000000000000000000000000000000008152600401611172906138dc565b60405180910390fd5b61118581306114d5565b6111c4576040517f08c379a00000000000000000000000000000000000000000000000000000000081526004016111bb9061396e565b60405180910390fd5b81600c600085815260200190815260200160002081905550600d839080600181540180825580915050600190039060005260206000200160009091909190915055505050565b6060600b6000838152602001908152602001600020805461122a90613251565b80601f016020809104026020016040519081016040528092919081815260200182805461125690613251565b80156112a35780601f10611278576101008083540402835291602001916112a3565b820191906000526020600020905b81548152906001019060200180831161128657829003601f168201915b50505050509050919050565b6000600c600083815260200190815260200160002054905060006112d283610c16565b905060008211611317576040517f08c379a000000000000000000000000000000000000000000000000000000000815260040161130e906139da565b60405180910390fd5b3482111561135a576040517f08c379a000000000000000000000000000000000000000000000000000000000815260040161135190613a46565b60405180910390fd5b3373ffffffffffffffffffffffffffffffffffffffff168173ffffffffffffffffffffffffffffffffffffffff16036113c8576040517f08c379a00000000000000000000000000000000000000000000000000000000081526004016113bf90613ab2565b60405180910390fd5b6113d281306114d5565b611411576040517f08c379a00000000000000000000000000000000000000000000000000000000081526004016114089061396e565b60405180910390fd5b8073ffffffffffffffffffffffffffffffffffffffff166108fc349081150290604051600060405180830381858888f19350505050158015611457573d6000803e3d6000fd5b503073ffffffffffffffffffffffffffffffffffffffff166342842e0e8233866040518463ffffffff1660e01b815260040161149593929190613ad2565b600060405180830381600087803b1580156114af57600080fd5b505af11580156114c3573d6000803e3d6000fd5b505050506114d083611cb8565b505050565b6000600560008473ffffffffffffffffffffffffffffffffffffffff1673ffffffffffffffffffffffffffffffffffffffff16815260200190815260200160002060008373ffffffffffffffffffffffffffffffffffffffff1673ffffffffffffffffffffffffffffffffffffffff16815260200190815260200160002060009054906101000a900460ff16905092915050565b6060600061157683610d67565b905060008167ffffffffffffffff81111561159457611593612f0a565b5b6040519080825280602002602001820160405280156115cd57816020015b6115ba612813565b8152602001906001900390816115b25790505b50905060005b828110156116525760006115e78683610a37565b905060006115f48261120a565b9050600061160183610f40565b9050604051806060016040528084815260200183815260200182815250858581518110611631576116306135ee565b5b6020026020010181905250505050808061164a9061374a565b9150506115d3565b508092505050919050565b6000611669600a611f74565b6000611675600a611f8a565b905082600b6000838152602001908152602001600020908051906020019061169e929190612834565b506116a93382611f98565b80915050919050565b60007f80ac58cd000000000000000000000000000000000000000000000000000000007bffffffffffffffffffffffffffffffffffffffffffffffffffffffff1916827bffffffffffffffffffffffffffffffffffffffffffffffffffffffff1916148061177d57507f5b5e139f000000000000000000000000000000000000000000000000000000007bffffffffffffffffffffffffffffffffffffffffffffffffffffffff1916827bffffffffffffffffffffffffffffffffffffffffffffffffffffffff1916145b8061178d575061178c82612171565b5b9050919050565b61179d816121db565b6117dc576040517f08c379a00000000000000000000000000000000000000000000000000000000081526004016117d390613669565b60405180910390fd5b50565b600033905090565b816004600083815260200190815260200160002060006101000a81548173ffffffffffffffffffffffffffffffffffffffff021916908373ffffffffffffffffffffffffffffffffffffffff160217905550808273ffffffffffffffffffffffffffffffffffffffff1661185a83610c16565b73ffffffffffffffffffffffffffffffffffffffff167f8c5be1e5ebec7d5bd14f71427d1e84f3dd0314c0f7b2291e5b200ac8c7c3b92560405160405180910390a45050565b6000806118ac83610c16565b90508073ffffffffffffffffffffffffffffffffffffffff168473ffffffffffffffffffffffffffffffffffffffff1614806118ee57506118ed81856114d5565b5b8061192c57508373ffffffffffffffffffffffffffffffffffffffff1661191484610815565b73ffffffffffffffffffffffffffffffffffffffff16145b91505092915050565b8273ffffffffffffffffffffffffffffffffffffffff1661195582610c16565b73ffffffffffffffffffffffffffffffffffffffff16146119ab576040517f08c379a00000000000000000000000000000000000000000000000000000000081526004016119a290613b7b565b60405180910390fd5b600073ffffffffffffffffffffffffffffffffffffffff168273ffffffffffffffffffffffffffffffffffffffff1603611a1a576040517f08c379a0000000000000000000000000000000000000000000000000000000008152600401611a1190613c0d565b60405180910390fd5b611a25838383612247565b611a306000826117e7565b6001600360008573ffffffffffffffffffffffffffffffffffffffff1673ffffffffffffffffffffffffffffffffffffffff1681526020019081526020016000206000828254611a809190613c2d565b925050819055506001600360008473ffffffffffffffffffffffffffffffffffffffff1673ffffffffffffffffffffffffffffffffffffffff1681526020019081526020016000206000828254611ad79190613c61565b92505081905550816002600083815260200190815260200160002060006101000a81548173ffffffffffffffffffffffffffffffffffffffff021916908373ffffffffffffffffffffffffffffffffffffffff160217905550808273ffffffffffffffffffffffffffffffffffffffff168473ffffffffffffffffffffffffffffffffffffffff167fddf252ad1be2c89b69c2b068fc378daa952ba7f163c4a11628f55a4df523b3ef60405160405180910390a4611b96838383612359565b505050565b6000611ba682610c16565b9050611bb481600084612247565b611bbf6000836117e7565b6001600360008373ffffffffffffffffffffffffffffffffffffffff1673ffffffffffffffffffffffffffffffffffffffff1681526020019081526020016000206000828254611c0f9190613c2d565b925050819055506002600083815260200190815260200160002060006101000a81549073ffffffffffffffffffffffffffffffffffffffff021916905581600073ffffffffffffffffffffffffffffffffffffffff168273ffffffffffffffffffffffffffffffffffffffff167fddf252ad1be2c89b69c2b068fc378daa952ba7f163c4a11628f55a4df523b3ef60405160405180910390a4611cb481600084612359565b5050565b6000600c60008381526020019081526020016000208190555060005b600d80549050811015611da8576000600c6000600d8481548110611cfb57611cfa6135ee565b5b906000526020600020015481526020019081526020016000205403611d9557600d6001600d80549050611d2e9190613c2d565b81548110611d3f57611d3e6135ee565b5b9060005260206000200154600d8281548110611d5e57611d5d6135ee565b5b9060005260206000200181905550600d805480611d7e57611d7d613cb7565b5b600190038181906000526020600020016000905590555b8080611da09061374a565b915050611cd4565b5050565b8173ffffffffffffffffffffffffffffffffffffffff168373ffffffffffffffffffffffffffffffffffffffff1603611e1a576040517f08c379a0000000000000000000000000000000000000000000000000000000008152600401611e1190613d32565b60405180910390fd5b80600560008573ffffffffffffffffffffffffffffffffffffffff1673ffffffffffffffffffffffffffffffffffffffff16815260200190815260200160002060008473ffffffffffffffffffffffffffffffffffffffff1673ffffffffffffffffffffffffffffffffffffffff16815260200190815260200160002060006101000a81548160ff0219169083151502179055508173ffffffffffffffffffffffffffffffffffffffff168373ffffffffffffffffffffffffffffffffffffffff167f17307eab39ab6107e8899845ad3d59bd9653f200f220920489ca2b5937696c3183604051611f0b919061298b565b60405180910390a3505050565b611f23848484611935565b611f2f8484848461235e565b611f6e576040517f08c379a0000000000000000000000000000000000000000000000000000000008152600401611f6590613dc4565b60405180910390fd5b50505050565b6001816000016000828254019250508190555050565b600081600001549050919050565b600073ffffffffffffffffffffffffffffffffffffffff168273ffffffffffffffffffffffffffffffffffffffff1603612007576040517f08c379a0000000000000000000000000000000000000000000000000000000008152600401611ffe90613e30565b60405180910390fd5b612010816121db565b15612050576040517f08c379a000000000000000000000000000000000000000000000000000000000815260040161204790613e9c565b60405180910390fd5b61205c60008383612247565b6001600360008473ffffffffffffffffffffffffffffffffffffffff1673ffffffffffffffffffffffffffffffffffffffff16815260200190815260200160002060008282546120ac9190613c61565b92505081905550816002600083815260200190815260200160002060006101000a81548173ffffffffffffffffffffffffffffffffffffffff021916908373ffffffffffffffffffffffffffffffffffffffff160217905550808273ffffffffffffffffffffffffffffffffffffffff16600073ffffffffffffffffffffffffffffffffffffffff167fddf252ad1be2c89b69c2b068fc378daa952ba7f163c4a11628f55a4df523b3ef60405160405180910390a461216d60008383612359565b5050565b60007f01ffc9a7000000000000000000000000000000000000000000000000000000007bffffffffffffffffffffffffffffffffffffffffffffffffffffffff1916827bffffffffffffffffffffffffffffffffffffffffffffffffffffffff1916149050919050565b60008073ffffffffffffffffffffffffffffffffffffffff166002600084815260200190815260200160002060009054906101000a900473ffffffffffffffffffffffffffffffffffffffff1673ffffffffffffffffffffffffffffffffffffffff1614159050919050565b6122528383836124e5565b600073ffffffffffffffffffffffffffffffffffffffff168373ffffffffffffffffffffffffffffffffffffffff16036122945761228f816124ea565b6122d3565b8173ffffffffffffffffffffffffffffffffffffffff168373ffffffffffffffffffffffffffffffffffffffff16146122d2576122d18382612533565b5b5b600073ffffffffffffffffffffffffffffffffffffffff168273ffffffffffffffffffffffffffffffffffffffff160361231557612310816126a0565b612354565b8273ffffffffffffffffffffffffffffffffffffffff168273ffffffffffffffffffffffffffffffffffffffff1614612353576123528282612771565b5b5b505050565b505050565b600061237f8473ffffffffffffffffffffffffffffffffffffffff166127f0565b156124d8578373ffffffffffffffffffffffffffffffffffffffff1663150b7a026123a86117df565b8786866040518563ffffffff1660e01b81526004016123ca9493929190613f11565b6020604051808303816000875af192505050801561240657506040513d601f19601f820116820180604052508101906124039190613f72565b60015b612488573d8060008114612436576040519150601f19603f3d011682016040523d82523d6000602084013e61243b565b606091505b506000815103612480576040517f08c379a000000000000000000000000000000000000000000000000000000000815260040161247790613dc4565b60405180910390fd5b805181602001fd5b63150b7a0260e01b7bffffffffffffffffffffffffffffffffffffffffffffffffffffffff1916817bffffffffffffffffffffffffffffffffffffffffffffffffffffffff1916149150506124dd565b600190505b949350505050565b505050565b6008805490506009600083815260200190815260200160002081905550600881908060018154018082558091505060019003906000526020600020016000909190919091505550565b6000600161254084610d67565b61254a9190613c2d565b905060006007600084815260200190815260200160002054905081811461262f576000600660008673ffffffffffffffffffffffffffffffffffffffff1673ffffffffffffffffffffffffffffffffffffffff168152602001908152602001600020600084815260200190815260200160002054905080600660008773ffffffffffffffffffffffffffffffffffffffff1673ffffffffffffffffffffffffffffffffffffffff168152602001908152602001600020600084815260200190815260200160002081905550816007600083815260200190815260200160002081905550505b6007600084815260200190815260200160002060009055600660008573ffffffffffffffffffffffffffffffffffffffff1673ffffffffffffffffffffffffffffffffffffffff16815260200190815260200160002060008381526020019081526020016000206000905550505050565b600060016008805490506126b49190613c2d565b90506000600960008481526020019081526020016000205490506000600883815481106126e4576126e36135ee565b5b906000526020600020015490508060088381548110612706576127056135ee565b5b90600052602060002001819055508160096000838152602001908152602001600020819055506009600085815260200190815260200160002060009055600880548061275557612754613cb7565b5b6001900381819060005260206000200160009055905550505050565b600061277c83610d67565b905081600660008573ffffffffffffffffffffffffffffffffffffffff1673ffffffffffffffffffffffffffffffffffffffff168152602001908152602001600020600083815260200190815260200160002081905550806007600084815260200190815260200160002081905550505050565b6000808273ffffffffffffffffffffffffffffffffffffffff163b119050919050565b60405180606001604052806000815260200160608152602001600081525090565b82805461284090613251565b90600052602060002090601f01602090048101928261286257600085556128a9565b82601f1061287b57805160ff19168380011785556128a9565b828001600101855582156128a9579182015b828111156128a857825182559160200191906001019061288d565b5b5090506128b691906128ba565b5090565b5b808211156128d35760008160009055506001016128bb565b5090565b6000604051905090565b600080fd5b600080fd5b60007fffffffff0000000000000000000000000000000000000000000000000000000082169050919050565b612920816128eb565b811461292b57600080fd5b50565b60008135905061293d81612917565b92915050565b600060208284031215612959576129586128e1565b5b60006129678482850161292e565b91505092915050565b60008115159050919050565b61298581612970565b82525050565b60006020820190506129a0600083018461297c565b92915050565b600081519050919050565b600082825260208201905092915050565b60005b838110156129e05780820151818401526020810190506129c5565b838111156129ef576000848401525b50505050565b6000601f19601f8301169050919050565b6000612a11826129a6565b612a1b81856129b1565b9350612a2b8185602086016129c2565b612a34816129f5565b840191505092915050565b60006020820190508181036000830152612a598184612a06565b905092915050565b6000819050919050565b612a7481612a61565b8114612a7f57600080fd5b50565b600081359050612a9181612a6b565b92915050565b600060208284031215612aad57612aac6128e1565b5b6000612abb84828501612a82565b91505092915050565b600073ffffffffffffffffffffffffffffffffffffffff82169050919050565b6000612aef82612ac4565b9050919050565b612aff81612ae4565b82525050565b6000602082019050612b1a6000830184612af6565b92915050565b612b2981612ae4565b8114612b3457600080fd5b50565b600081359050612b4681612b20565b92915050565b60008060408385031215612b6357612b626128e1565b5b6000612b7185828601612b37565b9250506020612b8285828601612a82565b9150509250929050565b612b9581612a61565b82525050565b6000602082019050612bb06000830184612b8c565b92915050565b600081519050919050565b600082825260208201905092915050565b6000819050602082019050919050565b612beb81612a61565b82525050565b6000612bfd8383612be2565b60208301905092915050565b6000602082019050919050565b6000612c2182612bb6565b612c2b8185612bc1565b9350612c3683612bd2565b8060005b83811015612c67578151612c4e8882612bf1565b9750612c5983612c09565b925050600181019050612c3a565b5085935050505092915050565b60006020820190508181036000830152612c8e8184612c16565b905092915050565b600080600060608486031215612caf57612cae6128e1565b5b6000612cbd86828701612b37565b9350506020612cce86828701612b37565b9250506040612cdf86828701612a82565b9150509250925092565b600060208284031215612cff57612cfe6128e1565b5b6000612d0d84828501612b37565b91505092915050565b600081519050919050565b600082825260208201905092915050565b6000819050602082019050919050565b600082825260208201905092915050565b6000612d5e826129a6565b612d688185612d42565b9350612d788185602086016129c2565b612d81816129f5565b840191505092915050565b6000606083016000830151612da46000860182612be2565b5060208301518482036020860152612dbc8282612d53565b9150506040830151612dd16040860182612be2565b508091505092915050565b6000612de88383612d8c565b905092915050565b6000602082019050919050565b6000612e0882612d16565b612e128185612d21565b935083602082028501612e2485612d32565b8060005b85811015612e605784840389528151612e418582612ddc565b9450612e4c83612df0565b925060208a01995050600181019050612e28565b50829750879550505050505092915050565b60006020820190508181036000830152612e8c8184612dfd565b905092915050565b612e9d81612970565b8114612ea857600080fd5b50565b600081359050612eba81612e94565b92915050565b60008060408385031215612ed757612ed66128e1565b5b6000612ee585828601612b37565b9250506020612ef685828601612eab565b9150509250929050565b600080fd5b600080fd5b7f4e487b7100000000000000000000000000000000000000000000000000000000600052604160045260246000fd5b612f42826129f5565b810181811067ffffffffffffffff82111715612f6157612f60612f0a565b5b80604052505050565b6000612f746128d7565b9050612f808282612f39565b919050565b600067ffffffffffffffff821115612fa057612f9f612f0a565b5b612fa9826129f5565b9050602081019050919050565b82818337600083830152505050565b6000612fd8612fd384612f85565b612f6a565b905082815260208101848484011115612ff457612ff3612f05565b5b612fff848285612fb6565b509392505050565b600082601f83011261301c5761301b612f00565b5b813561302c848260208601612fc5565b91505092915050565b6000806000806080858703121561304f5761304e6128e1565b5b600061305d87828801612b37565b945050602061306e87828801612b37565b935050604061307f87828801612a82565b925050606085013567ffffffffffffffff8111156130a05761309f6128e6565b5b6130ac87828801613007565b91505092959194509250565b600080604083850312156130cf576130ce6128e1565b5b60006130dd85828601612a82565b92505060206130ee85828601612a82565b9150509250929050565b6000806040838503121561310f5761310e6128e1565b5b600061311d85828601612b37565b925050602061312e85828601612b37565b9150509250929050565b600067ffffffffffffffff82111561315357613152612f0a565b5b61315c826129f5565b9050602081019050919050565b600061317c61317784613138565b612f6a565b90508281526020810184848401111561319857613197612f05565b5b6131a3848285612fb6565b509392505050565b600082601f8301126131c0576131bf612f00565b5b81356131d0848260208601613169565b91505092915050565b6000602082840312156131ef576131ee6128e1565b5b600082013567ffffffffffffffff81111561320d5761320c6128e6565b5b613219848285016131ab565b91505092915050565b7f4e487b7100000000000000000000000000000000000000000000000000000000600052602260045260246000fd5b6000600282049050600182168061326957607f821691505b60208210810361327c5761327b613222565b5b50919050565b7f4552433732313a20617070726f76616c20746f2063757272656e74206f776e6560008201527f7200000000000000000000000000000000000000000000000000000000000000602082015250565b60006132de6021836129b1565b91506132e982613282565b604082019050919050565b6000602082019050818103600083015261330d816132d1565b9050919050565b7f4552433732313a20617070726f76652063616c6c6572206973206e6f7420746f60008201527f6b656e206f776e6572206e6f7220617070726f76656420666f7220616c6c0000602082015250565b6000613370603e836129b1565b915061337b82613314565b604082019050919050565b6000602082019050818103600083015261339f81613363565b9050919050565b7f4552433732313a2063616c6c6572206973206e6f7420746f6b656e206f776e6560008201527f72206e6f7220617070726f766564000000000000000000000000000000000000602082015250565b6000613402602e836129b1565b915061340d826133a6565b604082019050919050565b60006020820190508181036000830152613431816133f5565b9050919050565b7f455243373231456e756d657261626c653a206f776e657220696e646578206f7560008201527f74206f6620626f756e6473000000000000000000000000000000000000000000602082015250565b6000613494602b836129b1565b915061349f82613438565b604082019050919050565b600060208201905081810360008301526134c381613487565b9050919050565b7f6d73672e73656e646572206973206e6f7420746865206f776e6572206f66207460008201527f686520746f6b656e000000000000000000000000000000000000000000000000602082015250565b60006135266028836129b1565b9150613531826134ca565b604082019050919050565b6000602082019050818103600083015261355581613519565b9050919050565b7f455243373231456e756d657261626c653a20676c6f62616c20696e646578206f60008201527f7574206f6620626f756e64730000000000000000000000000000000000000000602082015250565b60006135b8602c836129b1565b91506135c38261355c565b604082019050919050565b600060208201905081810360008301526135e7816135ab565b9050919050565b7f4e487b7100000000000000000000000000000000000000000000000000000000600052603260045260246000fd5b7f4552433732313a20696e76616c696420746f6b656e2049440000000000000000600082015250565b60006136536018836129b1565b915061365e8261361d565b602082019050919050565b6000602082019050818103600083015261368281613646565b9050919050565b7f4552433732313a2061646472657373207a65726f206973206e6f74206120766160008201527f6c6964206f776e65720000000000000000000000000000000000000000000000602082015250565b60006136e56029836129b1565b91506136f082613689565b604082019050919050565b60006020820190508181036000830152613714816136d8565b9050919050565b7f4e487b7100000000000000000000000000000000000000000000000000000000600052601160045260246000fd5b600061375582612a61565b91507fffffffffffffffffffffffffffffffffffffffffffffffffffffffffffffffff82036137875761378661371b565b5b600182019050919050565b7f43616c6c6572206973206e6f74206e667420746f6b656e206f776e65722e0000600082015250565b60006137c8601e836129b1565b91506137d382613792565b602082019050919050565b600060208201905081810360008301526137f7816137bb565b9050919050565b7f5072696365206973207a65726f206f72206c6f7765722e000000000000000000600082015250565b60006138346017836129b1565b915061383f826137fe565b602082019050919050565b6000602082019050818103600083015261386381613827565b9050919050565b7f54686973206e667420746f6b656e20697320616c7265616479206f6e2073616c60008201527f652e000000000000000000000000000000000000000000000000000000000000602082015250565b60006138c66022836129b1565b91506138d18261386a565b604082019050919050565b600060208201905081810360008301526138f5816138b9565b9050919050565b7f6e667420746f6b656e206f776e657220646964206e6f7420617070726f76652060008201527f746f6b656e2e0000000000000000000000000000000000000000000000000000602082015250565b60006139586026836129b1565b9150613963826138fc565b604082019050919050565b600060208201905081810360008301526139878161394b565b9050919050565b7f6e667420746f6b656e206e6f742073616c652e00000000000000000000000000600082015250565b60006139c46013836129b1565b91506139cf8261398e565b602082019050919050565b600060208201905081810360008301526139f3816139b7565b9050919050565b7f63616c6c65722073656e74206c6f776572207468616e2070726963652e000000600082015250565b6000613a30601d836129b1565b9150613a3b826139fa565b602082019050919050565b60006020820190508181036000830152613a5f81613a23565b9050919050565b7f63616c6c6572206973206e667420746f6b656e206f776e65722e000000000000600082015250565b6000613a9c601a836129b1565b9150613aa782613a66565b602082019050919050565b60006020820190508181036000830152613acb81613a8f565b9050919050565b6000606082019050613ae76000830186612af6565b613af46020830185612af6565b613b016040830184612b8c565b949350505050565b7f4552433732313a207472616e736665722066726f6d20696e636f72726563742060008201527f6f776e6572000000000000000000000000000000000000000000000000000000602082015250565b6000613b656025836129b1565b9150613b7082613b09565b604082019050919050565b60006020820190508181036000830152613b9481613b58565b9050919050565b7f4552433732313a207472616e7366657220746f20746865207a65726f2061646460008201527f7265737300000000000000000000000000000000000000000000000000000000602082015250565b6000613bf76024836129b1565b9150613c0282613b9b565b604082019050919050565b60006020820190508181036000830152613c2681613bea565b9050919050565b6000613c3882612a61565b9150613c4383612a61565b925082821015613c5657613c5561371b565b5b828203905092915050565b6000613c6c82612a61565b9150613c7783612a61565b9250827fffffffffffffffffffffffffffffffffffffffffffffffffffffffffffffffff03821115613cac57613cab61371b565b5b828201905092915050565b7f4e487b7100000000000000000000000000000000000000000000000000000000600052603160045260246000fd5b7f4552433732313a20617070726f766520746f2063616c6c657200000000000000600082015250565b6000613d1c6019836129b1565b9150613d2782613ce6565b602082019050919050565b60006020820190508181036000830152613d4b81613d0f565b9050919050565b7f4552433732313a207472616e7366657220746f206e6f6e20455243373231526560008201527f63656976657220696d706c656d656e7465720000000000000000000000000000602082015250565b6000613dae6032836129b1565b9150613db982613d52565b604082019050919050565b60006020820190508181036000830152613ddd81613da1565b9050919050565b7f4552433732313a206d696e7420746f20746865207a65726f2061646472657373600082015250565b6000613e1a6020836129b1565b9150613e2582613de4565b602082019050919050565b60006020820190508181036000830152613e4981613e0d565b9050919050565b7f4552433732313a20746f6b656e20616c7265616479206d696e74656400000000600082015250565b6000613e86601c836129b1565b9150613e9182613e50565b602082019050919050565b60006020820190508181036000830152613eb581613e79565b9050919050565b600081519050919050565b600082825260208201905092915050565b6000613ee382613ebc565b613eed8185613ec7565b9350613efd8185602086016129c2565b613f06816129f5565b840191505092915050565b6000608082019050613f266000830187612af6565b613f336020830186612af6565b613f406040830185612b8c565b8181036060830152613f528184613ed8565b905095945050505050565b600081519050613f6c81612917565b92915050565b600060208284031215613f8857613f876128e1565b5b6000613f9684828501613f5d565b9150509291505056fea26469706673582212201958e1f40c803f56e006fbd1c35c0d2a84e0a1cd5819c80b5c881b3893c29dde64736f6c634300080d0033",
  "immutableReferences": {},
  "source": "// SPDX-License-Identifier: MIT\npragma solidity ^0.8.7;\n\nimport \"@openzeppelin/contracts/token/ERC721/extensions/ERC721Enumerable.sol\";\nimport \"@openzeppelin/contracts/utils/Counters.sol\";\n\ncontract BublrNftToken is  ERC721Enumerable {\n    using Counters for Counters.Counter;\n    \n    Counters.Counter private _tokenIds;\n\n    //constructor(string memory _name, string memory _symbol) ERC721(_name, _symbol) {}\n    constructor() ERC721(\"bublr\", \"bublr_item\") {}\n\n    mapping(uint =>string ) public tokenURIs ;\n\n    function tokenURI(uint _tokenId) override public view returns (string memory) {\n        return  tokenURIs[_tokenId] ;\n    }\n\n\n    function mintNFT( string memory _tokenURI) public  returns (uint256) {\n        _tokenIds.increment();\n\n        uint256 tokenId = _tokenIds.current();\n        tokenURIs[tokenId] = _tokenURI;\n \n        _mint(msg.sender, tokenId);\n   \n        return tokenId;\n    }\n\n\n\n    struct NftTokenData {\n        uint256 nftTokenId;\n        string  nftTokenURI ;\n        uint price ;        \n    }\n\n    function getNftTokens(address _nftTokenOwner) view public returns (NftTokenData[] memory) {\n        uint256 balanceLength = balanceOf(_nftTokenOwner);\n        //require(balanceLength != 0, \"Owner did not have token.\");\n\n        NftTokenData[] memory nftTokenData = new NftTokenData[](balanceLength);\n\n        for(uint256 i = 0; i < balanceLength; i++) {\n            uint256 nftTokenId = tokenOfOwnerByIndex(_nftTokenOwner, i);\n            string memory nftTokenURI = tokenURI(nftTokenId);   \n            uint tokenPrice = getNftTokenPrice(nftTokenId);\n            nftTokenData[i] = NftTokenData(nftTokenId , nftTokenURI, tokenPrice );\n        }\n\n        return nftTokenData;\n\n    }\n\n    //register sale\n    mapping(uint256 => uint256) public nftTokenPrices;\n    uint256[] public onSaleNftTokenArray;\n\n    function setSaleNftToken(uint256 _tokenId, uint256 _price) public {\n        address nftTokenOwner = ownerOf(_tokenId);\n\n        require(nftTokenOwner == msg.sender, \"Caller is not nft token owner.\");\n        require(_price > 0, \"Price is zero or lower.\");\n        require(nftTokenPrices[_tokenId] == 0, \"This nft token is already on sale.\");\n        require(isApprovedForAll(nftTokenOwner, address(this)), \"nft token owner did not approve token.\");\n\n        nftTokenPrices[_tokenId] = _price;\n        onSaleNftTokenArray.push(_tokenId); // nft list\n\n    }\n\n\n\n    // get sale list\n    function getSaleNftTokens() public view returns (NftTokenData[] memory ){\n        uint[] memory onSaleNftToken = getSaleNftToken();\n        NftTokenData[] memory onSaleNftTokens = new NftTokenData[](onSaleNftToken.length);\n\n        for(uint i = 0; i < onSaleNftToken.length; i ++){\n            uint tokenId = onSaleNftToken[i];\n            uint tokenPrice = getNftTokenPrice(tokenId);\n            onSaleNftTokens[i] = NftTokenData(tokenId, tokenURI(tokenId), tokenPrice) ;\n        }\n\n        return onSaleNftTokens;\n\n    }\n\n\n    function getSaleNftToken() view public returns (uint[] memory ){\n        return onSaleNftTokenArray ;\n    }\n\n\n    function getNftTokenPrice(uint256 _tokenId) view public returns(uint256){\n        return nftTokenPrices[_tokenId];\n    }\n\n\n\n   //buy\n    function buyNftToken(uint256 _tokenId) public payable {\n        uint256 price = nftTokenPrices[_tokenId];\n        address nftTokenOwner = ownerOf(_tokenId);\n\n        require(price > 0, \"nft token not sale.\");\n        require(price  <= msg.value, \"caller sent lower than price.\");\n        require(nftTokenOwner != msg.sender,\"caller is nft token owner.\");\n        require(isApprovedForAll(nftTokenOwner, address(this)), \"nft token owner did not approve token.\");\n\n        payable(nftTokenOwner).transfer(msg.value);\n\n        IERC721(address(this)).safeTransferFrom(nftTokenOwner, msg.sender, _tokenId);\n\n        //remove from sale list\n        removeToken(_tokenId);        \n    }\n\n\n\n    function burn( uint256 _tokenId) public{\n        address addr_owner = ownerOf(_tokenId);\n        require( addr_owner == msg.sender, \"msg.sender is not the owner of the token\");\n        _burn(_tokenId);\n        removeToken(_tokenId);\n    }\n\n    function removeToken(uint256 _tokenId) private {\n                \n        nftTokenPrices[_tokenId] = 0;\n\n        for(uint256 i = 0; i<onSaleNftTokenArray.length; i ++){\n            if(nftTokenPrices[onSaleNftTokenArray[i]] ==0){\n                onSaleNftTokenArray[i] = onSaleNftTokenArray[onSaleNftTokenArray.length -1] ;\n                onSaleNftTokenArray.pop();\n            }\n        }\n    }    \n}\n\n",
  "sourcePath": "g:\\BlockChain\\NFTMarketPlace\\NFTContract\\contracts\\BublrNFTContract.sol",
  "compiler": {
    "name": "solc",
    "version": "0.8.13+commit.abaa5c0e.Emscripten.clang"
  },
  "schemaVersion": "3.4.7",
  "updatedAt": "2022-09-19T03:49:58.275Z",
  "networkType": "ethereum",
  "devdoc": {
    "kind": "dev",
    "methods": {
      "approve(address,uint256)": {
        "details": "See {IERC721-approve}."
      },
      "balanceOf(address)": {
        "details": "See {IERC721-balanceOf}."
      },
      "getApproved(uint256)": {
        "details": "See {IERC721-getApproved}."
      },
      "isApprovedForAll(address,address)": {
        "details": "See {IERC721-isApprovedForAll}."
      },
      "name()": {
        "details": "See {IERC721Metadata-name}."
      },
      "ownerOf(uint256)": {
        "details": "See {IERC721-ownerOf}."
      },
      "safeTransferFrom(address,address,uint256)": {
        "details": "See {IERC721-safeTransferFrom}."
      },
      "safeTransferFrom(address,address,uint256,bytes)": {
        "details": "See {IERC721-safeTransferFrom}."
      },
      "setApprovalForAll(address,bool)": {
        "details": "See {IERC721-setApprovalForAll}."
      },
      "supportsInterface(bytes4)": {
        "details": "See {IERC165-supportsInterface}."
      },
      "symbol()": {
        "details": "See {IERC721Metadata-symbol}."
      },
      "tokenByIndex(uint256)": {
        "details": "See {IERC721Enumerable-tokenByIndex}."
      },
      "tokenOfOwnerByIndex(address,uint256)": {
        "details": "See {IERC721Enumerable-tokenOfOwnerByIndex}."
      },
      "totalSupply()": {
        "details": "See {IERC721Enumerable-totalSupply}."
      },
      "transferFrom(address,address,uint256)": {
        "details": "See {IERC721-transferFrom}."
      }
    },
    "version": 1
  },
  "userdoc": {
    "kind": "user",
    "methods": {},
    "version": 1
  }
}